:020000040800F2
:10000000F80C0020C9010008DF040008950300086F
:10001000CD030008710200087F0C000800000000FA
:100020000000000000000000000000006906000859
:100030007502000800000000510500087D07000857
:10004000E3010008E3010008E3010008E301000800
:10005000E3010008E3010008E3010008E3010008F0
:10006000E3010008E3010008E3010008E3010008E0
:10007000E3010008E3010008E3010008E3010008D0
:10008000E3010008E3010008E3010008E3010008C0
:10009000E3010008E3010008E3010008E3010008B0
:1000A000E3010008E3010008E3010008E3010008A0
:1000B000E3010008E3010008E3010008E301000890
:1000C000E3010008E3010008E3010008E301000880
:1000D000E3010008C10A0008E3010008E301000889
:1000E000E3010008E3010008E301000800F002F862
:1000F00000F05AF80AA090E8000C82448344AAF168
:100100000107DA4501D100F04FF8AFF2090EBAE865
:100110000F0013F0010F18BFFB1A43F0010318473B
:10012000A40F0000C40F00000A444FF0000C10F8A8
:10013000013B13F0070408BF10F8014B1D1108BF65
:1001400010F8015B641E05D010F8016B641E01F805
:10015000016BF9D113F0080F1EBF10F8014BAD1C55
:100160000C1B09D16D1E58BF01F801CBFAD505E073
:1001700014F8016B01F8016B6D1EF9D59142D6D3CD
:10018000704700000023002400250026103A28BFF5
:1001900078C1FBD8520728BF30C148BF0B607047F9
:1001A0001FB51FBD10B510BD00F033F81146FFF7A5
:1001B000F7FF00F0E5FD00F051F803B4FFF7F2FFA0
:1001C00003BC00F05EFD0000094880470948004775
:1001D000FEE7FEE7FEE7FEE7FEE7FEE7FEE7FEE7F7
:1001E000FEE7FEE704480549054A064B7047000054
:1001F00081070008ED000008F8060020F80C002038
:10020000F8080020F80800207047704770477047D2
:100210007047754600F028F8AE460500694653461B
:1002200020F00700854618B020B5FFF7DBFFBDE8DA
:1002300020404FF000064FF000074FF000084FF04D
:10024000000B21F00701AC46ACE8C009ACE8C009DE
:10025000ACE8C009ACE8C0098D4670470446AFF36E
:1002600000802046FFF7A9FF00487047980600204D
:1002700000BFFEE770472DE9F04102460025002649
:10028000002000230024002791F803C00CF00F0584
:1002900091F803C00CF0100CBCF1000F03D091F8E2
:1002A00002C04CEA050591F800C0BCF1000F31D046
:1002B000146800202BE04FF0010C0CFA00F3B1F8A9
:1002C00000C00CEA03069E4220D183004FF00F0CC1
:1002D0000CFA03F7BC4305FA03FC4CEA040491F85A
:1002E00003C0BCF1280F06D14FF0010C0CFA00FC42
:1002F000C2F814C00AE091F803C0BCF1480F05D160
:100300004FF0010C0CFA00FCC2F810C0401C082889
:10031000D1D31460B1F800C0BCF1FF0F34DD5468D4
:1003200000202EE000F1080C4FF0010808FA0CF351
:10033000B1F800C00CEA03069E4221D183004FF0C1
:100340000F0C0CFA03F7BC4305FA03FC4CEA040457
:1003500091F803C0BCF1280F05D100F1080C08FA90
:100360000CF8C2F8148091F803C0BCF1480F07D113
:1003700000F1080C4FF0010808FA0CF8C2F81080E0
:10038000401C0828CED35460BDE8F081416170471D
:100390000161704700BFFEE708B50121102000F0A1
:1003A000E9F810208DF803004002ADF800000320AA
:1003B0008DF8020069460448FFF75DFF4FF40051D5
:1003C0000148FFF7E5FF08BD0010014000BFFEE750
:1003D00008B50121082000F0CDF84FF47040ADF8C9
:1003E000000010208DF8030003208DF802006946FC
:1003F0000448FFF740FF4FF470410248FFF7C6FF83
:1004000008BD0000000C014010B54FF480512D488C
:10041000FFF7BCFF4FF400512A48FFF7B7FF4FF436
:1004200080412848FFF7B2FF4FF400412548FFF70D
:10043000AFFF062000F04AFC4FF480512148FFF73F
:10044000A5FF4FF400511F48FFF7A0FF4FF4804174
:100450001C48FFF79DFF4FF400411A48FFF796FF35
:10046000062000F033FC4FF480511648FFF78EFF52
:100470004FF400511348FFF78BFF4FF480411148B0
:10048000FFF784FF4FF400410E48FFF77FFF06207F
:1004900000F01CFC4FF480510A48FFF779FF4FF43D
:1004A00000510848FFF772FF4FF480410548FFF7FD
:1004B0006DFF4FF400410348FFF768FF062000F08E
:1004C00005FC10BD000C014070B50446002503E09A
:1004D000FFF79AFF681CC5B2A542F9DB70BD7047F3
:1004E00070B5002100230F22C47804B3154C246892
:1004F00004F4E064C4F5E064210AC1F10403CA40D5
:10050000447804FA03F184781440214309010E4C25
:100510000678A155047804F01F050124AC40057845
:100520006D11AD0005F1E025C5F8004109E0047842
:1005300004F01F050124AC40044D0678761145F8FF
:10054000264070BD0CED00E000E400E080E100E03A
:100550007047000029B1064AD2690243044BDA61B0
:1005600004E0034AD2698243014BDA61704700001C
:100570000010024029B1064A92690243044B9A6175
:1005800004E0034A92698243014B9A61704700007C
:100590000010024030B500210022002400232D4D20
:1005A0006D6805F00C0121B1042905D0082923D17B
:1005B00005E0294D056022E0274D05601FE0254D2F
:1005C0006D6805F47012234D6D6805F480340225C2
:1005D00005EB92421CB9214D554305600BE01D4DC2
:1005E0006D6805F400351DB11C4D5543056002E0F2
:1005F000194D5543056002E0174D056000BF00BF6F
:10060000144D6D6805F0F0010909154D6B5C056826
:10061000DD4045600F4D6D6805F4E061090A104D3D
:100620006B5C4568DD4085600A4D6D6805F460517E
:10063000C90A0B4D6B5C4568DD40C560054D6D68B2
:1006400005F44041890B074D6B5CC568B5FBF3F5BC
:10065000056130BD0010024000127A0000093D0023
:100660001400002024000020704710B500F002F8AC
:1006700010BD00000CB500200190009033480068C8
:1006800040F480303149086000BF3048006800F411
:10069000003000900198401C0190009818B9019812
:1006A000B0F5A06FF1D12948006800F4003010B116
:1006B0000120009001E0002000900098012843D123
:1006C0002348006840F0100021490860084600688F
:1006D00020F0030008600846006840F0020008604F
:1006E0001A4840681949486008464068486008460A
:1006F000406840F4806048600846406820F47C1000
:1007000048600846406840F4E810486008460068C1
:1007100040F08070086000BF0C48006800F0007076
:100720000028F9D00948406820F0030007494860D4
:100730000846406840F00200486000BF0348406837
:1007400000F00C000828F9D10CBD00000010024098
:1007500000200240042808D14FF0E021096941F04F
:1007600004014FF0E022116107E04FF0E021096938
:1007700021F004014FF0E022116170477047000042
:1007800010B51348006840F00100114908600846A0
:100790004068104908400E494860084600680E4904
:1007A00008400B4908600846006820F48020086073
:1007B0000846406820F4FE0048604FF41F0088603F
:1007C000FFF753FF4FF000600449086010BD0000C0
:1007D000001002400000FFF8FFFFF6FE08ED00E009
:1007E00030B589B040F2A46540F2145401210420D0
:1007F000FFF7B0FE01210820FFF7BCFE4020ADF856
:10080000200018208DF8230003208DF8220008A96D
:100810001F48FFF730FD8020ADF8200008A91C48D4
:10082000FFF729FD44F61F60ADF818004720ADF82A
:1008300014000020ADF81A00ADF8160005A91548FF
:1008400000F0ECF86020ADF804000120ADF80600DF
:10085000ADF80A500020ADF80C0001A90D4800F0D9
:1008600027F808210B4800F06FF80120ADF80600CA
:10087000ADF80A4001A9074800F070F808210548C2
:1008800000F0BEF80121034800F006F809B030BDC1
:10089000000C01400008004021B1028842F0010232
:1008A000028004E002884FF6FE731A40028070470F
:1008B00070B5002400220023058C4FF6FE763540EB
:1008C0000584028C8388048B4FF68F752C40B51EEF
:1008D0002C400D882C43751E2A400D892A434D88D3
:1008E0002A43144DA8420BD0134DA84208D0134DF3
:1008F000A84205D0124DA84202D0124DA84213D1F1
:100900004FF6F7752A404D892A434FF6FB752A406A
:100910008D882A434FF6FF652B404FF6FF552B403D
:100920008D892B43CD892B4383800483CD88858695
:10093000028470BD002C01400034014000400140A1
:1009400000440140004801400A460021018B4FF657
:10095000F7731940114301837047000070B50024FC
:1009600000220023058C4FF6EF7635400584028C7B
:100970008388048B48F6FF752C404FF6FF452C40CA
:100980000D884FF6FF7606EA05252C434FF6DF75F6
:100990002A400D8906EA05152A434D8806EA051501
:1009A0002A43154DA84202D0144DA8421DD14FF63E
:1009B0007F752A404D894FF6FF7606EA05152A43D2
:1009C0004FF6BF752A408D8806EA05152A434FF673
:1009D000FF352B404FF2FF752B408D8906EA8505C8
:1009E0002B43CD8906EA85052B4383800483CD887C
:1009F0000587028470BD0000002C014000340140D6
:100A00000A460021018B4FF2FF7319404FF6FF7326
:100A100003EA022319430183704700000022028881
:100A20001D4B98420ED01D4B98420BD0B0F1804F19
:100A300008D01B4B984205D01A4B984202D01A4B53
:100A4000984204D14FF68F731A404B881A43174BC4
:100A5000984207D0164B984204D04FF6FF431A40F5
:100A6000CB881A4302808B8883850B8803850A4BC9
:100A700098420BD0094B984208D00E4B984205D0B3
:100A80000D4B984202D00D4B984201D10B7A038650
:100A90000123838270470000002C01400034014094
:100AA0000004004000080040000C0040001000401E
:100AB0000014004000400140004401400048014053
:100AC00010B540F22551054800F018F820B1034850
:100AD00000F0D0F80249087010BD00000038014055
:100AE0009606002021B1828942F40052828104E0FE
:100AF00082894DF6FF731A408281704770B50246B5
:100B0000002400230025002040F66A16B14200D1DF
:100B100000BFC1F3421501F01F03012606FA03F3DB
:100B2000012D02D19689334006E0022D02D1168AAA
:100B3000334001E0968A33400C12012606FA04F491
:100B40001688344013B10CB1012000E0002070BDC4
:100B5000F0B50346002400260025002040F66A1761
:100B6000B94200D100BF1846C1F3421401F01F067C
:100B7000012707FA06F5012C01D10C3004E0022C04
:100B800001D1103000E014301AB107682F4307601C
:100B900002E00768AF430760F0BD00002DE9F047B1
:100BA00086B005460E460024A24600BFA146002797
:100BB000B08900B100BF2F462C8A4CF6FF7004406C
:100BC000F08804432C82AC894EF6F3100440B088C0
:100BD00031890843718908430443AC81AC8A4FF6DC
:100BE000FF400440B0890443AC8201A8FFF7D2FC67
:100BF0001F48874202D1DDF810A001E0DDF80CA00B
:100C0000A88900F4004040B10AEBCA0000EB0A10CA
:100C100031684900B0FBF1F807E00AEBCA0000EBCD
:100C20000A1031688900B0FBF1F86420B8FBF0F0DD
:100C300004012009642101FB1089A88900F4004007
:100C400040B1322000EBC900B0FBF1F000F007002A
:100C5000044308E0322000EB09106421B0FBF1F0FE
:100C600000F00F0004432C8106B0BDE8F0870000BF
:100C70000038014001468888C0F30800704700BF73
:100C8000FEE7014600BF704710B56FF00400FFF7A4
:100C900061FD0A4800680A49B0FBF1F00949087093
:100CA0000846007800EB4001C1EBC0104FF6FF7121
:100CB00001EAC0000449088010BD000000000020C7
:100CC00000127A008C0600208E0600200146114A90
:100CD00012884A434FF0E0235A6100229A611A4673
:100CE000126942F001021A6100BF4FF0E022106960
:100CF00000F001021AB100F48032002AF5D04FF062
:100D0000E022126922F001024FF0E0231A61002272
:100D10009A6170478E06002010B50446B4B10120D8
:100D20001549086010B902280BD104E040F20960AF
:100D30001249088005E040F209601049091D088049
:100D400000BF00BF5020FFF7C1FF13E000200A4999
:100D50000860012010B902280BD104E040F2A46021
:100D60000649088005E040F2A4600449091D088096
:100D700000BF00BF10BD00008806002034080040FE
:100D8000FFF70AFBFFF780FF4FF4165000F04AF917
:100D9000FFF71EFBFFF724FD1420FFF795FB00244F
:100DA00007E0204600F046F80A20FFF78DFB601CA4
:100DB000C4B2132CF5DB02A000F028F900BFFEE757
:100DC0002E2E2E2E2E2E2E2E2E2E2E2E2E2E2E2E43
:100DD0002E2E2E2E2E2E2E2E2E2E2E2E2E2E2E2E33
:100DE0002E2E2E2E2E2E2E2E2E2E2E2E2E2E2E2E23
:100DF0002E2E2E2E2E2E2E2E2E2E000070B50546B7
:100E00000026002411E00A4800EBC500005D38B15F
:100E1000074901EBC501085D00F032F8761C02E0DD
:100E20000520FFF751FB601CC4B2082CEBDB70BD42
:100E30002800002070B50646002400251BE00F485E
:100E400000EB461010F8150004434FF6FF7000EA5F
:100E500004240A4800EB46116800401C085C044367
:100E60001CB1204600F070F802E00520FFF72CFBD3
:100E70000024681CC5B2102DE1DB70BD28040020E1
:100E800070B504460220012802D002280BD104E0EC
:100E900040F2D9602B49088005E040F2D960294929
:100EA000091D088000BF00BF002C46D00220012889
:100EB00002D002280BD104E040F2D9602149088019
:100EC00005E040F2D9601F49091D088000BF00BF3E
:100ED00040F26450FFF7FAFE002529E004F001001B
:100EE000FFF71AFF64100220012802D0022819D14E
:100EF0000BE0281D4FF4FA714843152190FBF1F0E7
:100F0000C0F5E1600F4908800CE0281D4FF4FA712C
:100F10004843152190FBF1F0C0F5E1600949091D36
:100F2000088000BF00BF4520FFF7D0FE681CC5B297
:100F3000002CD3D10020FFF7EFFE0620FFF7C4FA04
:100F400070BD00003408004070B50446022001283E
:100F500002D002280BD104E040F2D9602A4908806F
:100F600005E040F2D9602849091D088000BF00BF94
:100F7000002C45D00220012802D002280BD104E029
:100F800040F2D9602049088005E040F2D9601E494E
:100F9000091D088000BF00BFCF20FFF797FE002586
:100FA00029E004F00100FFF7B7FE641002200128D9
:100FB00002D0022819D10BE0281D4FF4FA714843E2
:100FC000152190FBF1F0C0F5E1600F4908800CE0BD
:100FD000281D4FF4FA714843152190FBF1F0C0F53C
:100FE000E1600949091D088000BF00BF4520FFF7E7
:100FF0006DFE681CC5B2002CD3D10020FFF78CFE1B
:101000000620FFF761FA70BD3408004010B50446B1
:1010100003E02078FFF7F2FE641C20780028F8D166
:1010200010BD000010B586B00446012144F2040052
:10103000FFF7A0FA4FF40070ADF8140003208DF80C
:10104000160018208DF8170005A91C48FFF713F9A2
:101050004FF48060ADF8140004208DF8170005A946
:101060001648FFF708F925208DF8000003208DF8B9
:1010700001008DF8020001208DF803006846FFF79B
:101080002FFA01940020ADF80800ADF80A00ADF881
:101090000C00ADF810000C20ADF80E0001A90848B6
:1010A000FFF77CFD012240F225510548FFF750FD76
:1010B00001210348FFF716FD06B010BD00080140EE
:1010C00000380140E41000080000002098060000ED
:1010D000280100086C150008980600206006000032
:1010E000840100081184A24A04680901020304066D
:1010F0000708090C69102502040608363F444444D9
:101100003F5E7F49494906082A3608344040405F1F
:10111000033E42423E03183120086314087F08143E
:101120006369272E020408107F082B644808113BCE
:101130007F081F112D1F204040183D403008300906
:101140002C080808205E3E4141413E60393019803C
:101150005A3818411916397926710909097E1C383F
:10116000444422192119793958277E0202027F014D
:101170004A784F28087F01011F01017F172D3E0289
:10118000037F3F19391206590619213909211D41DA
:10119000414949785B7F08812D334C484841818221
:1011A0007D1A3002311C123F1203212632497F4939
:1011B000262008205126083245022F36554945225F
:1011C00005A962703A3EB7296229D711362A1C0850
:1011D0001C2A4608083E08082A057E2910190131F4
:1011E0006303032D01060830E83D3E454951392A85
:1011F00021D6214523454931454949493629E83910
:10120000482D7949494630191939522C43444882AE
:101210005A36291A300839485324241A25B5397802
:101220005314222A1201513B2214502C404D48E9FC
:10123000363E415D553C363F4444443F5A7F503C26
:101240003E4141D91A7F082958291839104C48487D
:1012500048F72C49490E1019D7427F3B417F301186
:101260003C41417E282D08081463082B0101D81C3D
:101270007F4030F019292D7F201C02302960395819
:1012800019784A38101B473F2A19605B4C33D02924
:10129000E83640407F40401A7E482959267C0201AA
:1012A000027C20087806010E0106784B631468362C
:1012B00060100F10605D43454971B8615C700807AC
:1012C0009839A72B3040F621194F3999590F112E13
:1012D000062929291F382C090909783D0E111111F9
:1012E0001819102939361E2525251945083F484863
:1012F0001A19104A1EE859615A2F58525E557F0438
:10130000041B29F5211B0F10A023100F3B1F1007F2
:101310003960320E194F39822C1824247F29294232
:10132000083E081515150209431F091A1EAF292189
:101330002E1C0201021C0F1D02040201813D110A34
:10134000040AA92C190505902C131515A71174086A
:10135000364172771B4136591A085F3B04046241DB
:101360001610401080911577FF19011009C27E04F4
:10137000421843E04212421743FC42027E02194FD8
:101380001B0401021B02043216043004C0FF1B04BC
:10139000C00819411914191A194F181B0234922444
:1013A00092249425242528A64A659124FE242024ED
:1013B00050248825082C29211011020422482A5281
:1013C000A64163FE26402A50224915063FF8221204
:1013D000221423FF4239DE480A2004201820E3E0CB
:1013E0002220026B3FFF0A13202032203380071493
:1013F000FFFF08101104811082108C10B0FFC01084
:10140000B0108C1F821A810241100F040708391096
:101410002160210221012FFE4112413809C14041C2
:10142000200110010C5F3C012002632C603F80789A
:10143000280922022201220223FC5D295F19672D5F
:10144000202EA82A023EAA2AA9FFFE0A19022B2E44
:10145000F81A19E0400E0108820F44F82808100815
:10146000680F862D1FFE100402431FFE1608020897
:101470000C48180C4BEE6AA15AA14AB1CAAD4A08F1
:10148000166AA14BE74835080808061202124210F6
:1014900014423FC42A446A44AA482A482A502A626D
:1014A0002A413FFE1B80011B29E0120112061D1F6D
:1014B000FFE00862180C2008D00B10FFFF0B10088B
:1014C000D00C12102208591E180E011092138C1CF9
:1014D000F408122A922A92A619063D3E920812603A
:1014E00018080C3FF022022AC4B6381192AA817F54
:1014F000FE2AA02A902A882F9422222261141FFFFC
:1015000080180E640414BC15A456BC7CA454BC55AD
:10151000045E440640017FC0201D3492249224942E
:1015200025242528A64A659124FE242024502488B9
:1015300025082C04300429EB1808249024902690C8
:1015400025061CFCFF24081A260A2B24901A2110B9
:10155000081040908073FF1D2310C02E40FF5E9244
:0C15600052022AFE0605125E9240FF00B7
:04000005080000ED02
:00000001FF
